Archive member included because of file (symbol)

c:/program files (x86)/gnu tools arm embedded/4.9 2015q1/bin/../lib/gcc/arm-none-eabi/4.9.3/../../../../arm-none-eabi/lib/armv7e-m\libstdc++_nano.a(del_op.o)
                              ./src/Demo.o (operator delete(void*))
c:/program files (x86)/gnu tools arm embedded/4.9 2015q1/bin/../lib/gcc/arm-none-eabi/4.9.3/../../../../arm-none-eabi/lib/armv7e-m\libg_nano.a(lib_a-errno.o)
                              ./system/src/newlib/_sbrk.o (__errno)
c:/program files (x86)/gnu tools arm embedded/4.9 2015q1/bin/../lib/gcc/arm-none-eabi/4.9.3/../../../../arm-none-eabi/lib/armv7e-m\libg_nano.a(lib_a-impure.o)
                              c:/program files (x86)/gnu tools arm embedded/4.9 2015q1/bin/../lib/gcc/arm-none-eabi/4.9.3/../../../../arm-none-eabi/lib/armv7e-m\libg_nano.a(lib_a-errno.o) (_impure_ptr)
c:/program files (x86)/gnu tools arm embedded/4.9 2015q1/bin/../lib/gcc/arm-none-eabi/4.9.3/../../../../arm-none-eabi/lib/armv7e-m\libg_nano.a(lib_a-malloc.o)
                              c:/program files (x86)/gnu tools arm embedded/4.9 2015q1/bin/../lib/gcc/arm-none-eabi/4.9.3/../../../../arm-none-eabi/lib/armv7e-m\libstdc++_nano.a(del_op.o) (free)
c:/program files (x86)/gnu tools arm embedded/4.9 2015q1/bin/../lib/gcc/arm-none-eabi/4.9.3/../../../../arm-none-eabi/lib/armv7e-m\libg_nano.a(lib_a-nano-freer.o)
                              c:/program files (x86)/gnu tools arm embedded/4.9 2015q1/bin/../lib/gcc/arm-none-eabi/4.9.3/../../../../arm-none-eabi/lib/armv7e-m\libg_nano.a(lib_a-malloc.o) (_free_r)
c:/program files (x86)/gnu tools arm embedded/4.9 2015q1/bin/../lib/gcc/arm-none-eabi/4.9.3/../../../../arm-none-eabi/lib/armv7e-m\libg_nano.a(lib_a-nano-mallocr.o)
                              c:/program files (x86)/gnu tools arm embedded/4.9 2015q1/bin/../lib/gcc/arm-none-eabi/4.9.3/../../../../arm-none-eabi/lib/armv7e-m\libg_nano.a(lib_a-malloc.o) (_malloc_r)
c:/program files (x86)/gnu tools arm embedded/4.9 2015q1/bin/../lib/gcc/arm-none-eabi/4.9.3/../../../../arm-none-eabi/lib/armv7e-m\libg_nano.a(lib_a-sbrkr.o)
                              c:/program files (x86)/gnu tools arm embedded/4.9 2015q1/bin/../lib/gcc/arm-none-eabi/4.9.3/../../../../arm-none-eabi/lib/armv7e-m\libg_nano.a(lib_a-nano-mallocr.o) (_sbrk_r)

Allocating common symbols
Common symbol       size              file

errno               0x4               ./system/src/newlib/_syscalls.o

Discarded input sections

 .text          0x00000000        0x0 ./system/src/stm32f3-stdperiph/stm32f30x_gpio.o
 .data          0x00000000        0x0 ./system/src/stm32f3-stdperiph/stm32f30x_gpio.o
 .bss           0x00000000        0x0 ./system/src/stm32f3-stdperiph/stm32f30x_gpio.o
 .text.GPIO_DeInit
                0x00000000       0xa4 ./system/src/stm32f3-stdperiph/stm32f30x_gpio.o
 .text.GPIO_StructInit
                0x00000000       0x14 ./system/src/stm32f3-stdperiph/stm32f30x_gpio.o
 .text.GPIO_PinLockConfig
                0x00000000       0x10 ./system/src/stm32f3-stdperiph/stm32f30x_gpio.o
 .text.GPIO_ReadInputDataBit
                0x00000000        0xc ./system/src/stm32f3-stdperiph/stm32f30x_gpio.o
 .text.GPIO_ReadInputData
                0x00000000        0x6 ./system/src/stm32f3-stdperiph/stm32f30x_gpio.o
 .text.GPIO_ReadOutputDataBit
                0x00000000        0xc ./system/src/stm32f3-stdperiph/stm32f30x_gpio.o
 .text.GPIO_ReadOutputData
                0x00000000        0x6 ./system/src/stm32f3-stdperiph/stm32f30x_gpio.o
 .text.GPIO_SetBits
Memory Configuration

Name             Origin             Length             Attributes
RAM              0x20000000         0x0000a000         xrw
CCMRAM           0x10000000         0x00002000         xrw
FLASH            0x08000000         0x00040000         xr
FLASHB1          0x00000000         0x00000000         xr
EXTMEMB0         0x00000000         0x00000000         xr
EXTMEMB1         0x00000000         0x00000000         xr
EXTMEMB2         0x00000000         0x00000000         xr
EXTMEMB3         0x00000000         0x00000000         xr
MEMORY_ARRAY     0x20002000         0x00000000         xrw
*default*        0x00000000         0xffffffff

Linker script and memory map

LOAD ./system/src/stm32f3-stdperiph/stm32f30x_gpio.o
LOAD ./system/src/stm32f3-stdperiph/stm32f30x_rcc.o
LOAD ./system/src/newlib/_cxx.o
LOAD ./system/src/newlib/_exit.o
LOAD ./system/src/newlib/_sbrk.o
LOAD ./system/src/newlib/_startup.o
LOAD ./system/src/newlib/_syscalls.o
LOAD ./system/src/newlib/assert.o
LOAD ./system/src/diag/Trace.o
LOAD ./system/src/diag/trace_impl.o
LOAD ./system/src/cortexm/_initialize_hardware.o
LOAD ./system/src/cortexm/_reset_hardware.o
LOAD ./system/src/cortexm/exception_handlers.o
LOAD ./system/src/cmsis/system_stm32f30x.o
LOAD ./system/src/cmsis/vectors_stm32f30x.o
LOAD ./src/Demo.o
LOAD ./src/_write.o
LOAD ./src/main.o
LOAD c:/program files (x86)/gnu tools arm embedded/4.9 2015q1/bin/../lib/gcc/arm-none-eabi/4.9.3/../../../../arm-none-eabi/lib/armv7e-m\libstdc++_nano.a
LOAD c:/program files (x86)/gnu tools arm embedded/4.9 2015q1/bin/../lib/gcc/arm-none-eabi/4.9.3/../../../../arm-none-eabi/lib/armv7e-m\libm.a
START GROUP
LOAD c:/program files (x86)/gnu tools arm embedded/4.9 2015q1/bin/../lib/gcc/arm-none-eabi/4.9.3/armv7e-m\libgcc.a
LOAD c:/program files (x86)/gnu tools arm embedded/4.9 2015q1/bin/../lib/gcc/arm-none-eabi/4.9.3/../../../../arm-none-eabi/lib/armv7e-m\libg_nano.a
LOAD c:/program files (x86)/gnu tools arm embedded/4.9 2015q1/bin/../lib/gcc/arm-none-eabi/4.9.3/../../../../arm-none-eabi/lib/armv7e-m\libc_nano.a
END GROUP
START GROUP
LOAD c:/program files (x86)/gnu tools arm embedded/4.9 2015q1/bin/../lib/gcc/arm-none-eabi/4.9.3/armv7e-m\libgcc.a
LOAD c:/program files (x86)/gnu tools arm embedded/4.9 2015q1/bin/../lib/gcc/arm-none-eabi/4.9.3/../../../../arm-none-eabi/lib/armv7e-m\libc_nano.a
END GROUP
                0x2000a000                __stack = (ORIGIN (RAM) + 0xa000)
                0x2000a000                _estack = __stack
                0x00000400                __Main_Stack_Size = 0x400
                0x00000400                PROVIDE (_Main_Stack_Size, __Main_Stack_Size)
                0x20009c00                __Main_Stack_Limit = (__stack - __Main_Stack_Size)
                0x20009c00                PROVIDE (_Main_Stack_Limit, __Main_Stack_Limit)
                0x00000100                _Minimum_Stack_Size = 0x100
                0x20000088                PROVIDE (_Heap_Begin, _end_noinit)
                0x20009c00                PROVIDE (_Heap_Limit, (__stack - __Main_Stack_Size))

.isr_vector     0x08000000      0x2ea
 FILL mask 0xff
                0x08000000                __vectors_start__ = ABSOLUTE (.)
 *(.isr_vector)
 .isr_vector    0x08000000      0x188 ./system/src/cmsis/vectors_stm32f30x.o
                0x08000000                __isr_vectors
 *(.cfmconfig)
 *(.after_vectors .after_vectors.*)
 .after_vectors
                0x08000188       0xd4 ./system/src/newlib/_startup.o
                0x08000188                _start
 .after_vectors
                0x0800025c       0x8c ./system/src/cortexm/exception_handlers.o
                0x0800025c                Reset_Handler
                0x08000260                NMI_Handler
                0x08000262                HardFault_Handler
                0x08000276                HardFault_Handler_C
                0x080002a0                MemManage_Handler
                0x080002a2                BusFault_Handler
                0x080002b6                BusFault_Handler_C
                0x080002b8                UsageFault_Handler
                0x080002cc                UsageFault_Handler_C
                0x080002ce                SVC_Handler
                0x080002d0                DebugMon_Handler
                0x080002d2                PendSV_Handler
                0x080002d4                SysTick_Handler
 .after_vectors
                0x080002e8        0x2 ./system/src/cmsis/vectors_stm32f30x.o
                0x080002e8                RTC_Alarm_IRQHandler
                0x080002e8                TIM8_TRG_COM_IRQHandler
                0x080002e8                TIM8_CC_IRQHandler
                0x080002e8                TIM1_CC_IRQHandler
                0x080002e8                USB_HP_IRQHandler
                0x080002e8                PVD_IRQHandler
                0x080002e8                EXTI3_IRQHandler
                0x080002e8                EXTI0_IRQHandler
                0x080002e8                I2C2_EV_IRQHandler
                0x080002e8                FPU_IRQHandler
                0x080002e8                EXTI2_TS_IRQHandler
                0x080002e8                TIM1_UP_TIM16_IRQHandler
                0x080002e8                ADC1_2_IRQHandler
                0x080002e8                SPI1_IRQHandler
                0x080002e8                TIM6_DAC_IRQHandler
                0x080002e8                TIM8_UP_IRQHandler
                0x080002e8                DMA2_Channel2_IRQHandler
                0x080002e8                DMA1_Channel4_IRQHandler
                0x080002e8                USART3_IRQHandler
                0x080002e8                DMA1_Channel7_IRQHandler
                0x080002e8                CAN1_RX1_IRQHandler
                0x080002e8                UART5_IRQHandler
                0x080002e8                ADC3_IRQHandler
                0x080002e8                TIM4_IRQHandler
                0x080002e8                DMA2_Channel1_IRQHandler
                0x080002e8                I2C1_EV_IRQHandler
                0x080002e8                DMA1_Channel6_IRQHandler
                0x080002e8                UART4_IRQHandler
                0x080002e8                DMA2_Channel4_IRQHandler
                0x080002e8                TIM3_IRQHandler
                0x080002e8                RCC_IRQHandler
                0x080002e8                DMA1_Channel1_IRQHandler
                0x080002e8                Default_Handler
                0x080002e8                USBWakeUp_RMP_IRQHandler
                0x080002e8                EXTI15_10_IRQHandler
                0x080002e8                TIM7_IRQHandler
                0x080002e8                EXTI9_5_IRQHandler
                0x080002e8                TAMPER_STAMP_IRQHandler
                0x080002e8                RTC_WKUP_IRQHandler
                0x080002e8                SPI2_IRQHandler
                0x080002e8                DMA2_Channel5_IRQHandler
                0x080002e8                DMA1_Channel5_IRQHandler
                0x080002e8                USB_LP_IRQHandler
                0x080002e8                EXTI4_IRQHandler
                0x080002e8                USB_LP_CAN1_RX0_IRQHandler
                0x080002e8                TIM1_TRG_COM_TIM17_IRQHandler
                0x080002e8                USB_HP_CAN1_TX_IRQHandler
                0x080002e8                DMA1_Channel3_IRQHandler
                0x080002e8                ADC4_IRQHandler
                0x080002e8                WWDG_IRQHandler
                0x080002e8                TIM2_IRQHandler
                0x080002e8                COMP7_IRQHandler
                0x080002e8                COMP1_2_3_IRQHandler
                0x080002e8                EXTI1_IRQHandler
                0x080002e8                USART2_IRQHandler
                0x080002e8                COMP4_5_6_IRQHandler
                0x080002e8                I2C2_ER_IRQHandler
                0x080002e8                DMA1_Channel2_IRQHandler
                0x080002e8                TIM8_BRK_IRQHandler
                0x080002e8                CAN1_SCE_IRQHandler
                0x080002e8                FLASH_IRQHandler
                0x080002e8                USART1_IRQHandler
                0x080002e8                SPI3_IRQHandler
                0x080002e8                I2C1_ER_IRQHandler
                0x080002e8                USBWakeUp_IRQHandler
                0x080002e8                DMA2_Channel3_IRQHandler
                0x080002e8                TIM1_BRK_TIM15_IRQHandler

.inits          0x080002ec       0x28
                0x080002ec                __data_regions_array_start = .
                0x080002ec        0x4 LONG 0x80006c4 LOADADDR (.data)
                0x080002f0        0x4 LONG 0x20000000 ADDR (.data)
                0x080002f4        0x4 LONG 0x20000080 (ADDR (.data) + SIZEOF (.data))
                0x080002f8        0x4 LONG 0x80006c4 LOADADDR (.data_CCMRAM)
                0x080002fc        0x4 LONG 0x10000000 ADDR (.data_CCMRAM)
                0x08000300        0x4 LONG 0x10000000 (ADDR (.data_CCMRAM) + SIZEOF (.data_CCMRAM))
                0x08000304                __data_regions_array_end = .
                0x08000304                __bss_regions_array_start = .
                0x08000304        0x4 LONG 0x20000080 ADDR (.bss)
                0x08000308        0x4 LONG 0x20000088 (ADDR (.bss) + SIZEOF (.bss))
                0x0800030c        0x4 LONG 0x10000000 ADDR (.bss_CCMRAM)
                0x08000310        0x4 LONG 0x10000000 (ADDR (.bss_CCMRAM) + SIZEOF (.bss_CCMRAM))
                0x08000314                __bss_regions_array_end = .
 *(.init)
 *(.fini)
                0x08000314                . = ALIGN (0x4)
                0x08000314                PROVIDE (__preinit_array_start, .)
 *(.preinit_array_sysinit .preinit_array_sysinit.*)
 *(.preinit_array_platform .preinit_array_platform.*)
 *(.preinit_array .preinit_array.*)
                0x08000314                PROVIDE (__preinit_array_end, .)
                0x08000314                . = ALIGN (0x4)
                0x08000314                PROVIDE (__init_array_start, .)
 *(SORT(.init_array.*))
 *(.init_array)
                0x08000314                PROVIDE (__init_array_end, .)
                0x08000314                . = ALIGN (0x4)
                0x08000314                PROVIDE (__fini_array_start, .)
 *(SORT(.fini_array.*))
 *(.fini_array)
                0x08000314                PROVIDE (__fini_array_end, .)

.flashtext
 *(.flashtext .flashtext.*)

.text           0x08000318      0x3aa
 *(.text .text.*)
 .text.GPIO_Init
                0x08000318       0x78 ./system/src/stm32f3-stdperiph/stm32f30x_gpio.o
                0x08000318                GPIO_Init
 .text.GPIO_WriteBit
                0x08000390        0xa ./system/src/stm32f3-stdperiph/stm32f30x_gpio.o
                0x08000390                GPIO_WriteBit
 *fill*         0x0800039a        0x2 
 .text.RCC_AHBPeriphClockCmd
                0x0800039c       0x18 ./system/src/stm32f3-stdperiph/stm32f30x_rcc.o
                0x0800039c                RCC_AHBPeriphClockCmd
 .text._exit    0x080003b4        0x6 ./system/src/newlib/_exit.o
                0x080003b4                _exit
 *fill*         0x080003ba        0x2 
 .text.__initialize_args
                0x080003bc       0x10 ./system/src/newlib/_syscalls.o
                0x080003bc                __initialize_args
 .text.__initialize_hardware_early
                0x080003cc        0x4 ./system/src/cortexm/_initialize_hardware.o
                0x080003cc                __initialize_hardware_early
 .text.__initialize_hardware
                0x080003d0        0x4 ./system/src/cortexm/_initialize_hardware.o
                0x080003d0                __initialize_hardware
 .text.__reset_hardware
                0x080003d4       0x20 ./system/src/cortexm/_reset_hardware.o
                0x080003d4                __reset_hardware
 .text.isSemihosting
                0x080003f4       0x1c ./system/src/cortexm/exception_handlers.o
                0x080003f4                isSemihosting
 .text.SystemInit
                0x08000410       0xf0 ./system/src/cmsis/system_stm32f30x.o
                0x08000410                SystemInit
 .text.SystemCoreClockUpdate
                0x08000500       0x68 ./system/src/cmsis/system_stm32f30x.o
                0x08000500                SystemCoreClockUpdate
 .text._ZN4DemoD2Ev
                0x08000568        0x2 ./src/Demo.o
                0x08000568                Demo::~Demo()
                0x08000568                Demo::~Demo()
 .text._ZN4DemoD0Ev
                0x0800056a        0xc ./src/Demo.o
                0x0800056a                Demo::~Demo()
 *fill*         0x08000576        0x2 
 .text._ZN4Demo6setPinEtb
                0x08000578       0x10 ./src/Demo.o
                0x08000578                Demo::setPin(unsigned short, bool)
 .text._ZN4Demo8initLedsEv
                0x08000588       0x3c ./src/Demo.o
                0x08000588                Demo::initLeds()
 .text._ZN4DemoC2Ev
                0x080005c4       0x18 ./src/Demo.o
                0x080005c4                Demo::Demo()
                0x080005c4                Demo::Demo()
 .text.startup.main
                0x080005dc       0x32 ./src/main.o
                0x080005dc                main
 .text._ZdlPv   0x0800060e        0x4 c:/program files (x86)/gnu tools arm embedded/4.9 2015q1/bin/../lib/gcc/arm-none-eabi/4.9.3/../../../../arm-none-eabi/lib/armv7e-m\libstdc++_nano.a(del_op.o)
                0x0800060e                operator delete(void*)
 *fill*         0x08000612        0x2 
 .text.free     0x08000614       0x10 c:/program files (x86)/gnu tools arm embedded/4.9 2015q1/bin/../lib/gcc/arm-none-eabi/4.9.3/../../../../arm-none-eabi/lib/armv7e-m\libg_nano.a(lib_a-malloc.o)
                0x08000614                free
 .text._free_r  0x08000624       0x88 c:/program files (x86)/gnu tools arm embedded/4.9 2015q1/bin/../lib/gcc/arm-none-eabi/4.9.3/../../../../arm-none-eabi/lib/armv7e-m\libg_nano.a(lib_a-nano-freer.o)
                0x08000624                _free_r
 *(.rodata .rodata.* .constdata .constdata.*)
 *fill*         0x080006ac        0x4 
 .rodata._ZTV4Demo
                0x080006b0       0x10 ./src/Demo.o
                0x080006b0                vtable for Demo
 .rodata.str1.1
                0x080006c0        0x2 c:/program files (x86)/gnu tools arm embedded/4.9 2015q1/bin/../lib/gcc/arm-none-eabi/4.9.3/../../../../arm-none-eabi/lib/armv7e-m\libg_nano.a(lib_a-impure.o)
 *(vtable)
 *(.eh_frame*)
 *(.glue_7)
 .glue_7        0x00000000        0x0 linker stubs
 *(.glue_7t)
 .glue_7t       0x00000000        0x0 linker stubs

.vfp11_veneer   0x080006c4        0x0
 .vfp11_veneer  0x00000000        0x0 linker stubs

.v4_bx          0x080006c4        0x0
 .v4_bx         0x00000000        0x0 linker stubs

.iplt           0x080006c4        0x0
 .iplt          0x00000000        0x0 ./system/src/stm32f3-stdperiph/stm32f30x_gpio.o

.rel.dyn        0x080006c4        0x0
 .rel.iplt      0x00000000        0x0 ./system/src/stm32f3-stdperiph/stm32f30x_gpio.o

.ARM.extab
 *(.ARM.extab* .gnu.linkonce.armextab.*)
                0x080006c4                . = ALIGN (0x4)
                0x080006c4                __exidx_start = .

.ARM.exidx
 *(.ARM.exidx* .gnu.linkonce.armexidx.*)
                0x080006c4                __exidx_end = .
                0x080006c4                . = ALIGN (0x4)
                0x080006c4                _etext = .
                0x080006c4                __etext = .

.data_CCMRAM    0x10000000        0x0 load address 0x080006c4
 FILL mask 0xff
 *(.data.CCMRAM .data.CCMRAM.*)
                0x10000000                . = ALIGN (0x4)
                0x080006c4                _sidata = LOADADDR (.data)

.data           0x20000000       0x80 load address 0x080006c4
 FILL mask 0xff
                0x20000000                _sdata = .
                0x20000000                __data_start__ = .
 *(.data_begin .data_begin.*)
 *(.data .data.*)
 .data.argv.4062
                0x20000000        0x8 ./system/src/newlib/_syscalls.o
 .data.AHBPrescTable
                0x20000008       0x10 ./system/src/cmsis/system_stm32f30x.o
                0x20000008                AHBPrescTable
 .data.SystemCoreClock
                0x20000018        0x4 ./system/src/cmsis/system_stm32f30x.o
                0x20000018                SystemCoreClock
 .data.impure_data
                0x2000001c       0x60 c:/program files (x86)/gnu tools arm embedded/4.9 2015q1/bin/../lib/gcc/arm-none-eabi/4.9.3/../../../../arm-none-eabi/lib/armv7e-m\libg_nano.a(lib_a-impure.o)
 .data._impure_ptr
                0x2000007c        0x4 c:/program files (x86)/gnu tools arm embedded/4.9 2015q1/bin/../lib/gcc/arm-none-eabi/4.9.3/../../../../arm-none-eabi/lib/armv7e-m\libg_nano.a(lib_a-impure.o)
                0x2000007c                _impure_ptr
 *(.data_end .data_end.*)
                0x20000080                . = ALIGN (0x4)
                0x20000080                _edata = .
                0x20000080                __data_end__ = .

.igot.plt       0x20000080        0x0 load address 0x08000744
 .igot.plt      0x00000000        0x0 ./system/src/stm32f3-stdperiph/stm32f30x_gpio.o

.bss_CCMRAM     0x10000000        0x0
 *(.bss.CCMRAM .bss.CCMRAM.*)

.bss            0x20000080        0x8
                0x20000080                __bss_start__ = .
                0x20000080                _sbss = .
 *(.bss_begin .bss_begin.*)
 *(.bss .bss.*)
 .bss.name.4061
                0x20000080        0x1 ./system/src/newlib/_syscalls.o
 *fill*         0x20000081        0x3 
 .bss.__malloc_free_list
                0x20000084        0x4 c:/program files (x86)/gnu tools arm embedded/4.9 2015q1/bin/../lib/gcc/arm-none-eabi/4.9.3/../../../../arm-none-eabi/lib/armv7e-m\libg_nano.a(lib_a-nano-mallocr.o)
                0x20000084                __malloc_free_list
 *(COMMON)
 *(.bss_end .bss_end.*)
                0x20000088                . = ALIGN (0x4)
                0x20000088                __bss_end__ = .
                0x20000088                _ebss = .

.noinit_CCMRAM
 *(.noinit.CCMRAM .noinit.CCMRAM.*)

.noinit         0x20000088        0x0
                0x20000088                _noinit = .
 *(.noinit .noinit.*)
                0x20000088                . = ALIGN (0x4)
                0x20000088                _end_noinit = .
                0x20000088                PROVIDE (end, _end_noinit)
                0x20000088                PROVIDE (_end, _end_noinit)
                0x20000088                PROVIDE (__end, _end_noinit)
                0x20000088                PROVIDE (__end__, _end_noinit)

._check_stack   0x20000088      0x100
                0x20000188                . = (. + _Minimum_Stack_Size)
 *fill*         0x20000088      0x100 

.b1text
 *(.b1text)
 *(.b1rodata)
 *(.b1rodata.*)

.eb0text
 *(.eb0text)
 *(.eb0rodata)
 *(.eb0rodata.*)

.eb1text
 *(.eb1text)
 *(.eb1rodata)
 *(.eb1rodata.*)

.eb2text
 *(.eb2text)
 *(.eb2rodata)
 *(.eb2rodata.*)

.eb3text
 *(.eb3text)
 *(.eb3rodata)
 *(.eb3rodata.*)

.stab
 *(.stab)

.stabstr
 *(.stabstr)

.stab.excl
 *(.stab.excl)

.stab.exclstr
 *(.stab.exclstr)

.stab.index
 *(.stab.index)

.stab.indexstr
 *(.stab.indexstr)

.comment        0x00000000       0x70
 *(.comment)
 .comment       0x00000000       0x70 ./system/src/stm32f3-stdperiph/stm32f30x_gpio.o
                                 0x71 (size before relaxing)
 .comment       0x00000000       0x71 ./system/src/stm32f3-stdperiph/stm32f30x_rcc.o
 .comment       0x00000000       0x71 ./system/src/newlib/_exit.o
 .comment       0x00000000       0x71 ./system/src/newlib/_startup.o
 .comment       0x00000000       0x71 ./system/src/newlib/_syscalls.o
 .comment       0x00000000       0x71 ./system/src/cortexm/_initialize_hardware.o
 .comment       0x00000000       0x71 ./system/src/cortexm/_reset_hardware.o
 .comment       0x00000000       0x71 ./system/src/cortexm/exception_handlers.o
 .comment       0x00000000       0x71 ./system/src/cmsis/system_stm32f30x.o
 .comment       0x00000000       0x71 ./system/src/cmsis/vectors_stm32f30x.o
 .comment       0x00000000       0x71 ./src/Demo.o
 .comment       0x00000000       0x71 ./src/main.o

.ARM.attributes
                0x00000000       0x33
 .ARM.attributes
                0x00000000       0x33 ./system/src/stm32f3-stdperiph/stm32f30x_gpio.o
 .ARM.attributes
                0x00000033       0x33 ./system/src/stm32f3-stdperiph/stm32f30x_rcc.o
 .ARM.attributes
                0x00000066       0x33 ./system/src/newlib/_exit.o
 .ARM.attributes
                0x00000099       0x33 ./system/src/newlib/_startup.o
 .ARM.attributes
                0x000000cc       0x33 ./system/src/newlib/_syscalls.o
 .ARM.attributes
                0x000000ff       0x33 ./system/src/cortexm/_initialize_hardware.o
 .ARM.attributes
                0x00000132       0x33 ./system/src/cortexm/_reset_hardware.o
 .ARM.attributes
                0x00000165       0x33 ./system/src/cortexm/exception_handlers.o
 .ARM.attributes
                0x00000198       0x33 ./system/src/cmsis/system_stm32f30x.o
 .ARM.attributes
                0x000001cb       0x33 ./system/src/cmsis/vectors_stm32f30x.o
 .ARM.attributes
                0x000001fe       0x33 ./src/Demo.o
 .ARM.attributes
                0x00000231       0x33 ./src/main.o
 .ARM.attributes
                0x00000264       0x2e c:/program files (x86)/gnu tools arm embedded/4.9 2015q1/bin/../lib/gcc/arm-none-eabi/4.9.3/../../../../arm-none-eabi/lib/armv7e-m\libstdc++_nano.a(del_op.o)
 .ARM.attributes
                0x00000292       0x2e c:/program files (x86)/gnu tools arm embedded/4.9 2015q1/bin/../lib/gcc/arm-none-eabi/4.9.3/../../../../arm-none-eabi/lib/armv7e-m\libg_nano.a(lib_a-impure.o)
 .ARM.attributes
                0x000002c0       0x2e c:/program files (x86)/gnu tools arm embedded/4.9 2015q1/bin/../lib/gcc/arm-none-eabi/4.9.3/../../../../arm-none-eabi/lib/armv7e-m\libg_nano.a(lib_a-malloc.o)
 .ARM.attributes
                0x000002ee       0x2e c:/program files (x86)/gnu tools arm embedded/4.9 2015q1/bin/../lib/gcc/arm-none-eabi/4.9.3/../../../../arm-none-eabi/lib/armv7e-m\libg_nano.a(lib_a-nano-freer.o)
 .ARM.attributes
                0x0000031c       0x2e c:/program files (x86)/gnu tools arm embedded/4.9 2015q1/bin/../lib/gcc/arm-none-eabi/4.9.3/../../../../arm-none-eabi/lib/armv7e-m\libg_nano.a(lib_a-nano-mallocr.o)

.debug
 *(.debug)

.line
 *(.line)

.debug_srcinfo
 *(.debug_srcinfo)

.debug_sfnames
 *(.debug_sfnames)

.debug_aranges  0x00000000      0x400
 *(.debug_aranges)
 .debug_aranges
                0x00000000       0x80 ./system/src/stm32f3-stdperiph/stm32f30x_gpio.o
 .debug_aranges
                0x00000080      0x150 ./system/src/stm32f3-stdperiph/stm32f30x_rcc.o
 .debug_aranges
                0x000001d0       0x28 ./system/src/newlib/_exit.o
 .debug_aranges
                0x000001f8       0x40 ./system/src/newlib/_startup.o
 .debug_aranges
                0x00000238       0x30 ./system/src/newlib/_syscalls.o
 .debug_aranges
                0x00000268       0x28 ./system/src/cortexm/_initialize_hardware.o
 .debug_aranges
                0x00000290       0x20 ./system/src/cortexm/_reset_hardware.o
 .debug_aranges
                0x000002b0       0x88 ./system/src/cortexm/exception_handlers.o
 .debug_aranges
                0x00000338       0x28 ./system/src/cmsis/system_stm32f30x.o
 .debug_aranges
                0x00000360       0x20 ./system/src/cmsis/vectors_stm32f30x.o
 .debug_aranges
                0x00000380       0x60 ./src/Demo.o
 .debug_aranges
                0x000003e0       0x20 ./src/main.o

.debug_pubnames
 *(.debug_pubnames)

.debug_info     0x00000000     0x2fea
 *(.debug_info .gnu.linkonce.wi.*)
 .debug_info    0x00000000      0x6a0 ./system/src/stm32f3-stdperiph/stm32f30x_gpio.o
 .debug_info    0x000006a0      0xac3 ./system/src/stm32f3-stdperiph/stm32f30x_rcc.o
 .debug_info    0x00001163      0x100 ./system/src/newlib/_exit.o
 .debug_info    0x00001263      0x4a9 ./system/src/newlib/_startup.o
 .debug_info    0x0000170c      0x1a5 ./system/src/newlib/_syscalls.o
 .debug_info    0x000018b1       0xdb ./system/src/cortexm/_initialize_hardware.o
 .debug_info    0x0000198c      0x291 ./system/src/cortexm/_reset_hardware.o
 .debug_info    0x00001c1d      0x553 ./system/src/cortexm/exception_handlers.o
 .debug_info    0x00002170      0x490 ./system/src/cmsis/system_stm32f30x.o
 .debug_info    0x00002600       0xcd ./system/src/cmsis/vectors_stm32f30x.o
 .debug_info    0x000026cd      0x756 ./src/Demo.o
 .debug_info    0x00002e23      0x1c7 ./src/main.o

.debug_abbrev   0x00000000     0x10cb
 *(.debug_abbrev)
 .debug_abbrev  0x00000000      0x1e8 ./system/src/stm32f3-stdperiph/stm32f30x_gpio.o
 .debug_abbrev  0x000001e8      0x20b ./system/src/stm32f3-stdperiph/stm32f30x_rcc.o
 .debug_abbrev  0x000003f3       0xb8 ./system/src/newlib/_exit.o
 .debug_abbrev  0x000004ab      0x219 ./system/src/newlib/_startup.o
 .debug_abbrev  0x000006c4       0xe4 ./system/src/newlib/_syscalls.o
 .debug_abbrev  0x000007a8       0x88 ./system/src/cortexm/_initialize_hardware.o
 .debug_abbrev  0x00000830       0xe7 ./system/src/cortexm/_reset_hardware.o
 .debug_abbrev  0x00000917      0x1cc ./system/src/cortexm/exception_handlers.o
 .debug_abbrev  0x00000ae3      0x145 ./system/src/cmsis/system_stm32f30x.o
 .debug_abbrev  0x00000c28       0x9a ./system/src/cmsis/vectors_stm32f30x.o
 .debug_abbrev  0x00000cc2      0x30a ./src/Demo.o
 .debug_abbrev  0x00000fcc       0xff ./src/main.o

.debug_line     0x00000000     0x12d5
 *(.debug_line)
 .debug_line    0x00000000      0x26a ./system/src/stm32f3-stdperiph/stm32f30x_gpio.o
 .debug_line    0x0000026a      0x4af ./system/src/stm32f3-stdperiph/stm32f30x_rcc.o
 .debug_line    0x00000719      0x139 ./system/src/newlib/_exit.o
 .debug_line    0x00000852      0x112 ./system/src/newlib/_startup.o
 .debug_line    0x00000964      0x13c ./system/src/newlib/_syscalls.o
 .debug_line    0x00000aa0      0x117 ./system/src/cortexm/_initialize_hardware.o
 .debug_line    0x00000bb7      0x10f ./system/src/cortexm/_reset_hardware.o
 .debug_line    0x00000cc6      0x1b9 ./system/src/cortexm/exception_handlers.o
 .debug_line    0x00000e7f      0x153 ./system/src/cmsis/system_stm32f30x.o
 .debug_line    0x00000fd2       0x5d ./system/src/cmsis/vectors_stm32f30x.o
 .debug_line    0x0000102f      0x1c5 ./src/Demo.o
 .debug_line    0x000011f4       0xe1 ./src/main.o

.debug_frame    0x00000000      0x7e4
 *(.debug_frame)
 .debug_frame   0x00000000      0x108 ./system/src/stm32f3-stdperiph/stm32f30x_gpio.o
 .debug_frame   0x00000108      0x298 ./system/src/stm32f3-stdperiph/stm32f30x_rcc.o
 .debug_frame   0x000003a0       0x40 ./system/src/newlib/_exit.o
 .debug_frame   0x000003e0       0x80 ./system/src/newlib/_startup.o
 .debug_frame   0x00000460       0x50 ./system/src/newlib/_syscalls.o
 .debug_frame   0x000004b0       0x30 ./system/src/cortexm/_initialize_hardware.o
 .debug_frame   0x000004e0       0x20 ./system/src/cortexm/_reset_hardware.o
 .debug_frame   0x00000500       0xf8 ./system/src/cortexm/exception_handlers.o
 .debug_frame   0x000005f8       0x44 ./system/src/cmsis/system_stm32f30x.o
 .debug_frame   0x0000063c       0x20 ./system/src/cmsis/vectors_stm32f30x.o
 .debug_frame   0x0000065c       0xb8 ./src/Demo.o
 .debug_frame   0x00000714       0x28 ./src/main.o
 .debug_frame   0x0000073c       0x20 c:/program files (x86)/gnu tools arm embedded/4.9 2015q1/bin/../lib/gcc/arm-none-eabi/4.9.3/../../../../arm-none-eabi/lib/armv7e-m\libstdc++_nano.a(del_op.o)
 .debug_frame   0x0000075c       0x30 c:/program files (x86)/gnu tools arm embedded/4.9 2015q1/bin/../lib/gcc/arm-none-eabi/4.9.3/../../../../arm-none-eabi/lib/armv7e-m\libg_nano.a(lib_a-malloc.o)
 .debug_frame   0x0000078c       0x2c c:/program files (x86)/gnu tools arm embedded/4.9 2015q1/bin/../lib/gcc/arm-none-eabi/4.9.3/../../../../arm-none-eabi/lib/armv7e-m\libg_nano.a(lib_a-nano-freer.o)
 .debug_frame   0x000007b8       0x2c c:/program files (x86)/gnu tools arm embedded/4.9 2015q1/bin/../lib/gcc/arm-none-eabi/4.9.3/../../../../arm-none-eabi/lib/armv7e-m\libg_nano.a(lib_a-nano-mallocr.o)

.debug_str      0x00000000     0x150b
 *(.debug_str)
 .debug_str     0x00000000      0x468 ./system/src/stm32f3-stdperiph/stm32f30x_gpio.o
                                0x522 (size before relaxing)
 .debug_str     0x00000468      0x603 ./system/src/stm32f3-stdperiph/stm32f30x_rcc.o
                                0x851 (size before relaxing)
 .debug_str     0x00000a6b       0x56 ./system/src/newlib/_exit.o
                                0x1fa (size before relaxing)
 .debug_str     0x00000ac1      0x1a9 ./system/src/newlib/_startup.o
                                0x375 (size before relaxing)
 .debug_str     0x00000c6a       0x4d ./system/src/newlib/_syscalls.o
                                0x21a (size before relaxing)
 .debug_str     0x00000cb7       0x4e ./system/src/cortexm/_initialize_hardware.o
                                0x234 (size before relaxing)
 .debug_str     0x00000d05       0x93 ./system/src/cortexm/_reset_hardware.o
                                0x273 (size before relaxing)
 .debug_str     0x00000d98      0x39f ./system/src/cortexm/exception_handlers.o
                                0x5dc (size before relaxing)
 .debug_str     0x00001137       0x67 ./system/src/cmsis/system_stm32f30x.o
                                0x359 (size before relaxing)
 .debug_str     0x0000119e       0x57 ./system/src/cmsis/vectors_stm32f30x.o
                                0x1f6 (size before relaxing)
 .debug_str     0x000011f5      0x2f4 ./src/Demo.o
                                0x61a (size before relaxing)
 .debug_str     0x000014e9       0x22 ./src/main.o
                                0x27d (size before relaxing)

.debug_loc      0x00000000     0x127f
 *(.debug_loc)
 .debug_loc     0x00000000      0x2d6 ./system/src/stm32f3-stdperiph/stm32f30x_gpio.o
 .debug_loc     0x000002d6      0x8f6 ./system/src/stm32f3-stdperiph/stm32f30x_rcc.o
 .debug_loc     0x00000bcc       0x21 ./system/src/newlib/_exit.o
 .debug_loc     0x00000bed      0x31d ./system/src/newlib/_startup.o
 .debug_loc     0x00000f0a       0x63 ./system/src/newlib/_syscalls.o
 .debug_loc     0x00000f6d       0xd4 ./system/src/cortexm/exception_handlers.o
 .debug_loc     0x00001041       0xad ./system/src/cmsis/system_stm32f30x.o
 .debug_loc     0x000010ee      0x14f ./src/Demo.o
 .debug_loc     0x0000123d       0x42 ./src/main.o

.debug_macinfo
 *(.debug_macinfo)

.debug_weaknames
 *(.debug_weaknames)

.debug_funcnames
 *(.debug_funcnames)

.debug_typenames
 *(.debug_typenames)

.debug_varnames
 *(.debug_varnames)
OUTPUT(freertos_gcc_stm32f3.git.elf elf32-littlearm)

.debug_ranges   0x00000000      0x370
 .debug_ranges  0x00000000       0x70 ./system/src/stm32f3-stdperiph/stm32f30x_gpio.o
 .debug_ranges  0x00000070      0x140 ./system/src/stm32f3-stdperiph/stm32f30x_rcc.o
 .debug_ranges  0x000001b0       0x18 ./system/src/newlib/_exit.o
 .debug_ranges  0x000001c8       0x48 ./system/src/newlib/_startup.o
 .debug_ranges  0x00000210       0x20 ./system/src/newlib/_syscalls.o
 .debug_ranges  0x00000230       0x18 ./system/src/cortexm/_initialize_hardware.o
 .debug_ranges  0x00000248       0x10 ./system/src/cortexm/_reset_hardware.o
 .debug_ranges  0x00000258       0x78 ./system/src/cortexm/exception_handlers.o
 .debug_ranges  0x000002d0       0x30 ./system/src/cmsis/system_stm32f30x.o
 .debug_ranges  0x00000300       0x10 ./system/src/cmsis/vectors_stm32f30x.o
 .debug_ranges  0x00000310       0x50 ./src/Demo.o
 .debug_ranges  0x00000360       0x10 ./src/main.o
